:020000040000FA
:10000000600200104901000051010000530100008E
:1000100000000000000000000000000000000000E0
:10002000000000000000000000000000550100007A
:10003000000000000000000057010000590100000E
:100040005B0100005B0100005B0100005B01000040
:100050005B0100005B0100005B0100005B01000030
:100060005B0100005B0100005B0100005B01000020
:100070005B0100005B0100005B0100005B01000010
:100080005B0100005B0100005B0100005B01000000
:100090005B0100005B0100005B0100005B010000F0
:1000A0005B0100005B0100005B0100005B010000E0
:1000B0005B0100005B0100005B0100005B010000D0
:1000C00000F002F800F030F80CA030C8083824180E
:1000D0002D18A246671EAB4654465D46AC4201D180
:1000E00000F022F87E460F3E0FCCB6460126334282
:1000F00000D0FB1AA246AB4633431847C4010000A8
:10010000D40100000023002400250026103A01D36A
:1001100078C1FBD8520700D330C100D50B607047BF
:100120001FB51FBD10B510BD00F02BF81146FFF72D
:10013000F7FF00F035F900F043F803B4FFF7F2FFE2
:1001400003BC00F049F80000074880470748004713
:10015000FEE7FEE7FEE7FEE7FEE7FEE704480549A7
:10016000034A054B7047000001030000C100000076
:1001700060000010600200106000001070477047BF
:100180007047754600F024F8AE46050069465346B0
:10019000C008C000854618B020B5FFF7DFFF60BC7F
:1001A00000274908B6460026C0C5C0C5C0C5C0C5A1
:1001B000C0C5C0C5C0C5C0C5403D49008D467047DB
:1001C00010B50446C046C0462046FFF7B6FF10BD36
:1001D000004870470000001001491820ABBEFEE740
:1001E0002600020070470000034800BF0146401E81
:1001F0000029FBD170470000808D5B00034800BFE1
:100200000146401E0029FBD17047000000093D0057
:10021000274800680121090408432549086025484A
:100220008068C008C00023498860084680688860EC
:100230000846806AC008C00088620846806A8862F2
:100240001C484030C069C008C0001A494031C8612C
:100250000846C069C861164800680121090488433E
:1002600013490860144800680121084312490860D6
:100270001248C06B012108431049C8630E4800684A
:10028000022108430C4908600C48C06B0221084356
:100290000A49C86308480068042108430649086001
:1002A0000648C06B042108430449C8637047000036
:1002B000808004400040044000800250C03F025053
:1002C000C0040000000000106002000004010000F3
:1002D000000000000000000000000000000000001E
:1002E000000000000000000000000000000000000E
:1002F000000000000000000000000000FFFFFFFF02
:1003000008B52548806B2021884323498863002055
:1003100022490862009003E000BF0098401C009052
:100320000098C828F8D301201C4940310860486073
:10033000002048600120486000BF184840304068F5
:10034000C007C00F0028F8D0232014498860124845
:10035000806B802188431049886300BF0F48C068C4
:10036000C007C00F0028F9D003200C4940310863B2
:1003700001204863002048630120486300BF07480C
:100380004030406BC007C00F0028F8D0012003495F
:100390004031886308BD00000082044000800440B2
:1003A000FFF736FF89E04548C06B400840004349ED
:1003B000C863FFF719FF4148C06B012108433F495B
:1003C000C863FFF71BFF3D48C06B400840003B4936
:1003D000C863FFF713FF3948C06B01210843374951
:1003E000C863FFF70BFF3548C06B40084000334936
:1003F000C863FFF703FF3148C06B012108432F4951
:10040000C8630846C06B022188432C49C863FFF7C4
:10041000EBFE2A48C06B022108432849C863FFF756
:10042000EDFE2648C06B022188432449C863FFF7CC
:10043000E5FE2248C06B022108432049C863FFF74C
:10044000DDFE1E48C06B022188431C49C863FFF7CC
:10045000D5FE1A48C06B022108431849C8630846F4
:10046000C06B042188431549C863FFF7BDFE1348DC
:10047000C06B042108431149C863FFF7BFFE0F4852
:10048000C06B042188430D49C863FFF7B7FE0B48D2
:10049000C06B042108430949C863FFF7AFFE074852
:1004A000C06B042188430549C863FFF7A7FE0348D2
:1004B000C06B042108430149C86374E7C03F025080
:04000005000000C136
:00000001FF
