:020000040000FA
:1000000068020010650100006D0100006F01000032
:1000100000000000000000000000000000000000E0
:10002000000000000000000000000000710100005E
:1000300000000000000000007301000075010000D6
:1000400077010000770100007701000077010000D0
:1000500077010000770100007701000077010000C0
:1000600077010000770100007701000077010000B0
:1000700077010000770100007701000077010000A0
:100080007701000077010000770100007701000090
:100090007701000077010000770100007701000080
:1000A0007701000077010000770100007701000070
:1000B0007701000077010000770100007701000060
:1000C00000F002F800F03EF80CA030C80838241800
:1000D0002D18A246671EAB4654465D46AC4201D180
:1000E00000F030F87E460F3E0FCCB6460126334274
:1000F00000D0FB1AA246AB46334318470404000065
:1001000024040000103A02D378C878C1FAD8520704
:1001100001D330C830C101D504680C6070470000BD
:100120000023002400250026103A01D378C1FBD813
:10013000520700D330C100D50B6070471FB51FBDFB
:1001400010B510BD00F02BF81146FFF7F7FF00F0D7
:10015000BFF900F043F803B4FFF7F2FF03BC00F06F
:1001600049F800000748804707480047FEE7FEE7D8
:10017000FEE7FEE7FEE7FEE704480549034A054BB4
:100180007047000031040000C1000000680000104A
:10019000680200106800001070477047704775468D
:1001A00000F024F8AE46050069465346C008C0007A
:1001B000854618B020B5FFF7DFFF60BC002749086F
:1001C000B6460026C0C5C0C5C0C5C0C5C0C5C0C5EF
:1001D000C0C5C0C5403D49008D46704710B50446B6
:1001E000C046C0462046FFF7B6FF10BD0048704726
:1001F0000400001001491820ABBEFEE726000200F3
:100200007047000000B51348C06B4008400011491A
:10021000C8630846C06B022108430E49C8630846FC
:10022000C06B042108430B49C863012000F014F897
:100230000848C06B0749C8630846C06BC3B208468C
:10024000C06BC8630846C06B042188430149C8637A
:10025000184600BDC03F02500C4909690422914371
:100260000A4A11610A494143491E516100219161C5
:100270000321116100BF074909680029FBD0002153
:10028000044A1160014A11617047000000E000E07B
:10029000A86100000000001000B500F019F8382037
:1002A00000F062F80120FFF7D7FF012000F05CF8B2
:1002B0000120FFF7D1FF062000F056F80120FFF7DC
:1002C000CBFF0C2000F050F80120FFF7C5FF00BD68
:1002D00003480068FF210843014908607047000097
:1002E000008002500000000000000000000000003C
:1002F000000000000000000000000000FFFFFFFF02
:10030000F8B505460E46144616A000680090022E69
:1003100001DA102D01DB0120F8BD6946895D49191C
:10032000C8B200F021F82F4605E02078641C00F0E8
:100330004DF8781CC7B2102F03DA2178641C00290D
:10034000F3D1207800280AD00025701CC0B20646E0
:10035000022804DA224631462846FFF7D1FF002062
:10036000DAE7000080C0000010B5044600BFFFF7C8
:1003700049FF802108408028F9D01348C06B40080D
:1003800040001149C8630846C06B022188430E49EA
:10039000C8630846C06B042188430B49C8630846FC
:1003A000C4630120FFF758FF0748C06B04210843CE
:1003B0000549C8630120FFF74FFF0348C06B0421C4
:1003C00088430149C86310BDC03F025010B50446C0
:1003D00000BFFFF717FF802108408028F9D013489D
:1003E000C06B012108431149C8630846C06B022154
:1003F00088430E49C8630846C06B042188430B49F3
:10040000C8630846C4630120FFF726FF0748C06B96
:10041000042108430549C8630120FFF71DFF034875
:10042000C06B042188430149C86310BDC03F02501E
:1004300008B52548806B2021884323498863002024
:1004400022490862009003E000BF0098401C009021
:100450000098C828F8D301201C4940310860486042
:10046000002048600120486000BF184840304068C4
:10047000C007C00F0028F8D0232014498860124814
:10048000806B802188431049886300BF0F48C06893
:10049000C007C00F0028F9D003200C494031086381
:1004A00001204863002048630120486300BF0748DB
:1004B0004030406BC007C00F0028F8D0012003492E
:1004C0004031886308BD0000008204400080044081
:1004D000FFF7E2FE04E003A200210846FFF710FF49
:1004E000F9E7000048656C6C6F20576F726C6421EF
:1004F0002048656C6C6F204B697474792100000092
:1005000020050000000000100400000004010000AD
:100510002405000004000010640200002001000017
:0405200000000000D7
:04000005000000C136
:00000001FF
