:020000040000FA
:10000000600200104901000051010000530100008E
:1000100000000000000000000000000000000000E0
:10002000000000000000000000000000550100007A
:10003000000000000000000057010000590100000E
:100040005B0100005B0100005B0100005B01000040
:100050005B0100005B0100005B0100005B01000030
:100060005B0100005B0100005B0100005B01000020
:100070005B0100005B0100005B0100005B01000010
:100080005B0100005B0100005B0100005B01000000
:100090005B0100005B0100005B0100005B010000F0
:1000A0005B0100005B0100005B0100005B010000E0
:1000B000910400005B0100005B0100005B01000097
:1000C00000F002F800F030F80CA030C8083824180E
:1000D0002D18A246671EAB4654465D46AC4201D180
:1000E00000F022F87E460F3E0FCCB6460126334282
:1000F00000D0FB1AA246AB4633431847AC010000C0
:10010000BC0100000023002400250026103A01D382
:1001100078C1FBD8520700D330C100D50B607047BF
:100120001FB51FBD10B510BD00F02BF81146FFF72D
:10013000F7FF00F051FA00F043F803B4FFF7F2FFC5
:1001400003BC00F049F80000074880470748004713
:10015000FEE7FEE7FEE7FEE7FEE7FEE704480549A7
:10016000034A054B7047000009020000C10000006F
:1001700060000010600200106000001070477047BF
:100180007047754600F024F8AE46050069465346B0
:10019000C008C000854618B020B5FFF7DFFF60BC7F
:1001A00000274908B6460026C0C5C0C5C0C5C0C5A1
:1001B000C0C5C0C5C0C5C0C5403D49008D467047DB
:1001C00010B50446C046C0462046FFF7B6FF10BD36
:1001D000004870470000001001491820ABBEFEE740
:1001E0002600020070470000002007E0002101E027
:1001F0004A1C91B2C829FBDB421C90B2014A9042D2
:10020000F4DB70478813000008B52548806B202177
:10021000884323498863002022490862009003E054
:1002200000BF0098401C00900098C828F8D3012017
:100230001C49403108604860002048600120486047
:1002400000BF184840304068C007C00F0028F8D0F1
:100250002320144988601248806B8021884310490C
:10026000886300BF0F48C068C007C00F0028F9D0DE
:1002700003200C4940310863012048630020486393
:100280000120486300BF07484030406BC007C00FE3
:100290000028F8D0012003494031886308BD0000E0
:1002A000008204400080044074060000000000103A
:1002B00060020000040100000000000000000000D7
:1002C000000000000000000000000000000000002E
:1002D000000000000000000000000000000000001E
:1002E000000000000000000000000000000000000E
:1002F000000000000000000000000000FFFFFFFF02
:100300005F4800680121090408435D4908605D48B1
:100310008068C008C0005B498860084680688860C3
:100320000846806AC008C00088620846806A886201
:1003300054484030C069C008C00052494031C861CB
:100340000846C069C8614F488030C068C008C00016
:100350004C498031C8600846C068C8604948403090
:100360000068C008C000474940310860084600687E
:10037000086008464068C008C000486008464068F9
:10038000486040480068C008C0003E490860084610
:10039000006808600846006AC008C0000862084695
:1003A000006A08623648006801210904884334491C
:1003B0000860084600684021084331490860324817
:1003C000006801210843304908603048C06B0121B2
:1003D00008432E49C8632C480068022108432A4973
:1003E00008602A48C06B022108432849C863264890
:1003F000006804210843244908602448C06B042194
:1004000008432249C86320480068082108431E4960
:1004100008601E48C06B082108431C49C8631A487D
:10042000006810210843184908601848C06B102163
:1004300008431649C863144800682021084312493C
:1004400008601248C06B202108431049C8630E4859
:100450000068402108430C4908600C48C06B4021EB
:1004600008430A49C86308480068802108430649D0
:1004700008600648C06B802108430449C863704780
:10048000808004400040044000800250C03F025081
:1004900000B54E488069C007C00F002849D04C48BD
:1004A000C06B400840004A49C863FFF79DFE4848BA
:1004B000C06B042188434649C863FFF795FE444852
:1004C000C06B102188434249C863FFF78DFE404846
:1004D000C06B402188433E49C863FFF785FE00BFDB
:1004E0003C48C06BC007C00F0028F9D03848C06B2B
:1004F000012108433649C863FFF776FE3448C06BD4
:10050000042108433249C863FFF76EFE3048C06BD0
:10051000102108432E49C863FFF766FE2C48C06BC4
:10052000402108432A49C863FFF75EFE012027499E
:10053000C8612648806902210840022845D1244824
:10054000C06B88432249C863FFF74EFE2048C06B4A
:10055000082188431E49C863FFF746FE1C48C06B4C
:10056000202188431A49C863FFF73EFE1848C06B34
:10057000802188431649C863FFF736FE00BF15483F
:10058000C06B022108400228F9D11148C06B084312
:100590000F49C863FFF728FE0D48C06B08210843C8
:1005A0000B49C863FFF720FE0948C06B20210843B0
:1005B0000749C863FFF718FE0548C06B8021084350
:1005C0000349C86302200149C86100BD008003508F
:1005D000C03F0250C03F0350FFF792FE22484068E0
:1005E000C008C0002049486020480068400840001A
:1005F0001E4908601C488068C008C0001A4988600D
:100600001A480068022188431849086008460069B2
:100610000121084315490861084600690221084381
:100620001249086108464068400840004860084692
:100630004068022188430D4948600846C068400868
:100640004000C8600846C068022188430749C86066
:100650001C20002805DBC206D20E01219140044A6D
:10066000116000BF00BFFEE78040044000800350DF
:0406700000E100E0C5
:04000005000000C136
:00000001FF
