:020000040000FA
:10000000600200104901000051010000530100008E
:1000100000000000000000000000000000000000E0
:10002000000000000000000000000000550100007A
:10003000000000000000000057010000590100000E
:100040005B0100005B0100005B0100005B01000040
:100050005B0100005B0100005B0100005B01000030
:100060005B0100005B0100005B0100005B01000020
:100070005B0100005B0100005B0100005B01000010
:100080005B0100005B0100005B0100005B01000000
:100090005B0100005B0100005B0100005B010000F0
:1000A0005B0100005B0100005B0100005B010000E0
:1000B0005B0100005B0100005B0100005B010000D0
:1000C00000F002F800F030F80CA030C8083824180E
:1000D0002D18A246671EAB4654465D46AC4201D180
:1000E00000F022F87E460F3E0FCCB6460126334282
:1000F00000D0FB1AA246AB4633431847AC010000C0
:10010000BC0100000023002400250026103A01D382
:1001100078C1FBD8520700D330C100D50B607047BF
:100120001FB51FBD10B510BD00F02BF81146FFF72D
:10013000F7FF00F0ADF900F043F803B4FFF7F2FF6A
:1001400003BC00F049F80000074880470748004713
:10015000FEE7FEE7FEE7FEE7FEE7FEE704480549A7
:10016000034A054B7047000009020000C10000006F
:1001700060000010600200106000001070477047BF
:100180007047754600F024F8AE46050069465346B0
:10019000C008C000854618B020B5FFF7DFFF60BC7F
:1001A00000274908B6460026C0C5C0C5C0C5C0C5A1
:1001B000C0C5C0C5C0C5C0C5403D49008D467047DB
:1001C00010B50446C046C0462046FFF7B6FF10BD36
:1001D000004870470000001001491820ABBEFEE740
:1001E0002600020070470000002007E0002101E027
:1001F0004A1C91B2C829FBDB421C90B2014A9042D2
:10020000F4DB70478813000008B52548806B202177
:10021000884323498863002022490862009003E054
:1002200000BF0098401C00900098C828F8D3012017
:100230001C49403108604860002048600120486047
:1002400000BF184840304068C007C00F0028F8D0F1
:100250002320144988601248806B8021884310490C
:10026000886300BF0F48C068C007C00F0028F9D0DE
:1002700003200C4940310863012048630020486393
:100280000120486300BF07484030406BC007C00FE3
:100290000028F8D0012003494031886308BD0000E0
:1002A0000082044000800440BC07000000000010F1
:1002B00060020000040100000000000000000000D7
:1002C000000000000000000000000000000000002E
:1002D000000000000000000000000000000000001E
:1002E000000000000000000000000000000000000E
:1002F000000000000000000000000000FFFFFFFF02
:100300005F4800680121090408435D4908605D48B1
:100310008068C008C0005B498860084680688860C3
:100320000846806AC008C00088620846806A886201
:1003300054484030C069C008C00052494031C861CB
:100340000846C069C8614F488030C068C008C00016
:100350004C498031C8600846C068C8604948403090
:100360000068C008C000474940310860084600687E
:10037000086008464068C008C000486008464068F9
:10038000486040480068C008C0003E490860084610
:10039000006808600846006AC008C0000862084695
:1003A000006A08623648006801210904884334491C
:1003B0000860084600684021084331490860324817
:1003C000006801210843304908603048C06B0121B2
:1003D00008432E49C8632C480068022108432A4973
:1003E00008602A48C06B022108432849C863264890
:1003F000006804210843244908602448C06B042194
:1004000008432249C86320480068082108431E4960
:1004100008601E48C06B082108431C49C8631A487D
:10042000006810210843184908601848C06B102163
:1004300008431649C863144800682021084312493C
:1004400008601248C06B202108431049C8630E4859
:100450000068402108430C4908600C48C06B4021EB
:1004600008430A49C86308480068802108430649D0
:1004700008600648C06B802108430449C863704780
:10048000808004400040044000800250C03F025081
:10049000FFF736FF8FE1FFF7A7FEC748C06B4008A4
:1004A0004000C549C8630846C06B02210843C249E1
:1004B000C8630846C06B04210843BF49C8630846A7
:1004C000C06B08210843BC49C8630846C06B1021B3
:1004D0000843B949C8630846C06B20210843B649A0
:1004E000C8630846C06B40210843B349C863084647
:1004F000C06B80210843B049C863FFF775FEAE4862
:10050000C06B01210843AC49C8630846C06B022197
:100510008843A949C8630846C06B04210843A6491B
:10052000C8630846C06B08210843A349C86308464E
:10053000C06B10210843A049C8630846C06B202146
:1005400008439D49C8630846C06B402108439A4947
:10055000C8630846C06B802108439749C863FFF70A
:1005600043FE9548C06B012108439349C863084680
:10057000C06B022108439049C8630846C06B042140
:1005800088438D49C8630846C06B082108438A49DF
:10059000C8630846C06B102108438749C8630846F2
:1005A000C06B202108438449C8630846C06B4021C2
:1005B00008438149C8630846C06B802108437E49CF
:1005C000C863FFF711FE7C48C06B012108437A49DC
:1005D000C8630846C06B022108437749C8630846D0
:1005E000C06B042108437449C8630846C06B0821E6
:1005F00088437149C8630846C06B102108436E499F
:10060000C8630846C06B202108436B49C86308468D
:10061000C06B402108436849C8630846C06B80210D
:1006200008436549C863FFF7DFFD6348C06B0121DC
:1006300008436149C8630846C06B022108435E490C
:10064000C8630846C06B042108435B49C863084679
:10065000C06B082108435849C8630846C06B102185
:1006600088435549C8630846C06B20210843524956
:10067000C8630846C06B402108434F49C863084619
:10068000C06B802108434C49C863FFF7ADFD4A4861
:10069000C06B012108434849C8630846C06B02216A
:1006A00008434549C8630846C06B042108434249D2
:1006B000C8630846C06B082108433F49C863084621
:1006C000C06B102108433C49C8630846C06B202119
:1006D00088433949C8630846C06B402108433649FE
:1006E000C8630846C06B802108433349C863FFF7DD
:1006F0007BFD3148C06B012108432F49C863084680
:10070000C06B022108432C49C8630846C06B042112
:1007100008432949C8630846C06B08210843264995
:10072000C8630846C06B102108432349C8630846C4
:10073000C06B202108432049C8630846C06B402194
:1007400088431D49C8630846C06B802108431A4985
:10075000C863FFF749FD1848C06B012108431649DB
:10076000C8630846C06B022108431349C8630846A2
:10077000C06B042108431049C8630846C06B0821B8
:1007800008430D49C8630846C06B102108430A4955
:10079000C8630846C06B202108430749C863084660
:1007A000C06B402108430449C8630846C06B8021E0
:0C07B00088430149C8636EE6C03F025058
:04000005000000C136
:00000001FF
